{
  "contractName": "Bank",
  "abi": [
    {
      "inputs": [
        {
          "internalType": "contract Token",
          "name": "_token",
          "type": "address"
        }
      ],
      "stateMutability": "nonpayable",
      "type": "constructor"
    },
    {
      "anonymous": false,
      "inputs": [
        {
          "indexed": true,
          "internalType": "address",
          "name": "user",
          "type": "address"
        },
        {
          "indexed": false,
          "internalType": "uint256",
          "name": "amount",
          "type": "uint256"
        },
        {
          "indexed": false,
          "internalType": "uint256",
          "name": "start",
          "type": "uint256"
        }
      ],
      "name": "Deposit",
      "type": "event"
    },
    {
      "anonymous": false,
      "inputs": [
        {
          "indexed": true,
          "internalType": "address",
          "name": "user",
          "type": "address"
        },
        {
          "indexed": false,
          "internalType": "uint256",
          "name": "amount",
          "type": "uint256"
        },
        {
          "indexed": false,
          "internalType": "uint256",
          "name": "time",
          "type": "uint256"
        },
        {
          "indexed": false,
          "internalType": "uint256",
          "name": "interest",
          "type": "uint256"
        }
      ],
      "name": "Withdraw",
      "type": "event"
    },
    {
      "inputs": [
        {
          "internalType": "address",
          "name": "",
          "type": "address"
        }
      ],
      "name": "depositStart",
      "outputs": [
        {
          "internalType": "uint256",
          "name": "",
          "type": "uint256"
        }
      ],
      "stateMutability": "view",
      "type": "function",
      "constant": true
    },
    {
      "inputs": [
        {
          "internalType": "address",
          "name": "",
          "type": "address"
        }
      ],
      "name": "etherBalanceOf",
      "outputs": [
        {
          "internalType": "uint256",
          "name": "",
          "type": "uint256"
        }
      ],
      "stateMutability": "view",
      "type": "function",
      "constant": true
    },
    {
      "inputs": [
        {
          "internalType": "address",
          "name": "",
          "type": "address"
        }
      ],
      "name": "isDeposited",
      "outputs": [
        {
          "internalType": "bool",
          "name": "",
          "type": "bool"
        }
      ],
      "stateMutability": "view",
      "type": "function",
      "constant": true
    },
    {
      "inputs": [],
      "name": "deposit",
      "outputs": [],
      "stateMutability": "payable",
      "type": "function",
      "payable": true
    },
    {
      "inputs": [],
      "name": "withdraw",
      "outputs": [],
      "stateMutability": "nonpayable",
      "type": "function"
    }
  ],
  "bytecode": "0x608060405234801561001057600080fd5b50604051610ca0380380610ca08339818101604052810190610032919061008d565b806000806101000a81548173ffffffffffffffffffffffffffffffffffffffff021916908373ffffffffffffffffffffffffffffffffffffffff16021790555050610111565b600081519050610087816100fa565b92915050565b60006020828403121561009f57600080fd5b60006100ad84828501610078565b91505092915050565b60006100c1826100da565b9050919050565b60006100d3826100b6565b9050919050565b600073ffffffffffffffffffffffffffffffffffffffff82169050919050565b610103816100c8565b811461010e57600080fd5b50565b610b80806101206000396000f3fe608060405260043610610067576000357c010000000000000000000000000000000000000000000000000000000090048063179fc99f1461006c5780633ccfd60b146100a957806373732024146100c0578063d0e30db0146100fd578063ff87930a14610107575b600080fd5b34801561007857600080fd5b50610093600480360381019061008e9190610736565b610144565b6040516100a09190610916565b60405180910390f35b3480156100b557600080fd5b506100be61015c565b005b3480156100cc57600080fd5b506100e760048036038101906100e29190610736565b6104c8565b6040516100f4919061089b565b60405180910390f35b6101056104e8565b005b34801561011357600080fd5b5061012e60048036038101906101299190610736565b610709565b60405161013b9190610916565b60405180910390f35b60016020528060005260406000206000915090505481565b60011515600360003373ffffffffffffffffffffffffffffffffffffffff1673ffffffffffffffffffffffffffffffffffffffff16815260200190815260200160002060009054906101000a900460ff161515146101ef576040517f08c379a00000000000000000000000000000000000000000000000000000000081526004016101e6906108b6565b60405180910390fd5b60003390506000600160008373ffffffffffffffffffffffffffffffffffffffff1673ffffffffffffffffffffffffffffffffffffffff1681526020019081526020016000205490506000600260008473ffffffffffffffffffffffffffffffffffffffff1673ffffffffffffffffffffffffffffffffffffffff16815260200190815260200160002054426102859190610a52565b90506000600190506000818361029b91906109f8565b90508473ffffffffffffffffffffffffffffffffffffffff166108fc859081150290604051600060405180830381858888f193505050501580156102e3573d6000803e3d6000fd5b5060008054906101000a900473ffffffffffffffffffffffffffffffffffffffff1673ffffffffffffffffffffffffffffffffffffffff166340c10f1986836040518363ffffffff167c010000000000000000000000000000000000000000000000000000000002815260040161035b929190610872565b600060405180830381600087803b15801561037557600080fd5b505af1158015610389573d6000803e3d6000fd5b505050506000600160008773ffffffffffffffffffffffffffffffffffffffff1673ffffffffffffffffffffffffffffffffffffffff168152602001908152602001600020819055506000600260008773ffffffffffffffffffffffffffffffffffffffff1673ffffffffffffffffffffffffffffffffffffffff168152602001908152602001600020819055506000600360008773ffffffffffffffffffffffffffffffffffffffff1673ffffffffffffffffffffffffffffffffffffffff16815260200190815260200160002060006101000a81548160ff0219169083151502179055508473ffffffffffffffffffffffffffffffffffffffff167f02f25270a4d87bea75db541cdfe559334a275b4a233520ed6c0a2429667cca948585846040516104b99392919061095a565b60405180910390a25050505050565b60036020528060005260406000206000915054906101000a900460ff1681565b60001515600360003373ffffffffffffffffffffffffffffffffffffffff1673ffffffffffffffffffffffffffffffffffffffff16815260200190815260200160002060009054906101000a900460ff1615151461057b576040517f08c379a0000000000000000000000000000000000000000000000000000000008152600401610572906108d6565b60405180910390fd5b662386f26fc100003410156105c5576040517f08c379a00000000000000000000000000000000000000000000000000000000081526004016105bc906108f6565b60405180910390fd5b34600160003373ffffffffffffffffffffffffffffffffffffffff1673ffffffffffffffffffffffffffffffffffffffff168152602001908152602001600020600082825461061491906109a2565b9250508190555042600260003373ffffffffffffffffffffffffffffffffffffffff1673ffffffffffffffffffffffffffffffffffffffff168152602001908152602001600020819055506001600360003373ffffffffffffffffffffffffffffffffffffffff1673ffffffffffffffffffffffffffffffffffffffff16815260200190815260200160002060006101000a81548160ff0219169083151502179055503373ffffffffffffffffffffffffffffffffffffffff167f90890809c654f11d6e72a28fa60149770a0d11ec6c92319d6ceb2bb0a4ea1a1534426040516106ff929190610931565b60405180910390a2565b60026020528060005260406000206000915090505481565b60008135905061073081610b33565b92915050565b60006020828403121561074857600080fd5b600061075684828501610721565b91505092915050565b61076881610ace565b82525050565b61077781610a98565b82525050565b600061078a601883610991565b91507f5b215d204e6f206f6e676f696e67206465706f736974732100000000000000006000830152602082019050919050565b60006107ca601683610991565b91507f5b215d20416c7265616479206465706f736974656421000000000000000000006000830152602082019050919050565b600061080a602783610991565b91507f5b215d204d696e2e20616d6f756e7420302e3031204574686572202831305e3160008301527f36205765692921000000000000000000000000000000000000000000000000006020830152604082019050919050565b61086c81610ac4565b82525050565b6000604082019050610887600083018561075f565b6108946020830184610863565b9392505050565b60006020820190506108b0600083018461076e565b92915050565b600060208201905081810360008301526108cf8161077d565b9050919050565b600060208201905081810360008301526108ef816107bd565b9050919050565b6000602082019050818103600083015261090f816107fd565b9050919050565b600060208201905061092b6000830184610863565b92915050565b60006040820190506109466000830185610863565b6109536020830184610863565b9392505050565b600060608201905061096f6000830186610863565b61097c6020830185610863565b6109896040830184610863565b949350505050565b600082825260208201905092915050565b60006109ad82610ac4565b91506109b883610ac4565b9250827fffffffffffffffffffffffffffffffffffffffffffffffffffffffffffffffff038211156109ed576109ec610b04565b5b828201905092915050565b6000610a0382610ac4565b9150610a0e83610ac4565b9250817fffffffffffffffffffffffffffffffffffffffffffffffffffffffffffffffff0483118215151615610a4757610a46610b04565b5b828202905092915050565b6000610a5d82610ac4565b9150610a6883610ac4565b925082821015610a7b57610a7a610b04565b5b828203905092915050565b6000610a9182610aa4565b9050919050565b60008115159050919050565b600073ffffffffffffffffffffffffffffffffffffffff82169050919050565b6000819050919050565b6000610ad982610ae0565b9050919050565b6000610aeb82610af2565b9050919050565b6000610afd82610aa4565b9050919050565b7f4e487b7100000000000000000000000000000000000000000000000000000000600052601160045260246000fd5b610b3c81610a86565b8114610b4757600080fd5b5056fea26469706673582212203c5cd7221cdbd9f4803f112208b6067d9a16ecfb4dddad02215d7918892ff2fe64736f6c63430008000033",
  "immutableReferences": {},
  "source": "//SPDX-License-Identifier: UNLICENSED\r\npragma solidity 0.8.0;\r\n\r\nimport \"./Token.sol\";\r\n\r\ncontract Bank {\r\n    // token contract\r\n    Token private token;\r\n\r\n    // deposit event\r\n    event Deposit(address indexed user, uint amount, uint start);\r\n    event Withdraw(address indexed user, uint amount, uint time, uint interest);\r\n\r\n    // mapping amount of currency (account address -> amount of ether)\r\n    mapping(address => uint) public etherBalanceOf;\r\n\r\n    // mapping deposit start time (account address -> start time)\r\n    mapping(address => uint) public depositStart;\r\n\r\n    // mapping account is depositing (account address -> is deposit?)\r\n    mapping(address => bool) public isDeposited;\r\n\r\n    // constructor, call on deployment\r\n    constructor(Token _token) public {\r\n        token = _token;\r\n    }\r\n\r\n    // deposit function:\r\n    // balance Up\r\n    // start time set\r\n    // isDeposited = true\r\n    // *note: msg.value is in Wei (1 Ether = 10^18 Wei)\r\n    function deposit() payable public {\r\n        require(isDeposited[msg.sender] == false, \"[!] Already deposited!\");\r\n        require(msg.value >= 1e16, \"[!] Min. amount 0.01 Ether (10^16 Wei)!\");\r\n\r\n        // balance Up\r\n        etherBalanceOf[msg.sender] += msg.value;\r\n\r\n        // start time set\r\n        depositStart[msg.sender] = block.timestamp;\r\n\r\n        // isDeposited = true\r\n        isDeposited[msg.sender] = true;\r\n\r\n        emit Deposit(msg.sender, msg.value, block.timestamp);\r\n    }\r\n\r\n    // Withdraw function:\r\n    // calculate interest\r\n    // send deposit back\r\n    // mint interest as new tokens\r\n    // reset data\r\n    // *note: let interest per second = 1, just cause :)\r\n    function withdraw() public {\r\n        require(isDeposited[msg.sender] == true, \"[!] No ongoing deposits!\");\r\n        address payable caller = payable(msg.sender);\r\n\r\n        uint userBalance = etherBalanceOf[caller];\r\n        uint depositTime = block.timestamp - depositStart[caller];\r\n\r\n        // calculate interest\r\n        uint IPS = 1;\r\n        uint totalInterest = depositTime * IPS;\r\n\r\n        // send deposit back\r\n        \r\n        caller.transfer(userBalance);\r\n\r\n        // mint interest as new tokens\r\n        token.mint(caller, totalInterest);\r\n\r\n        // reset data\r\n        etherBalanceOf[caller] = 0;\r\n        depositStart[caller] = 0;\r\n        isDeposited[caller] = false;\r\n\r\n        emit Withdraw(caller, userBalance, depositTime, totalInterest);\r\n    }\r\n}",
  "sourcePath": "D:/Desktop/defi test project 3/truffle_files/contracts/Bank.sol",
  "compiler": {
    "name": "solc",
    "version": "0.8.0+commit.c7dfd78e.Emscripten.clang"
  },
  "schemaVersion": "3.3.4",
  "updatedAt": "2021-04-18T14:44:31.306Z",
  "networkType": "ethereum",
  "devdoc": {
    "kind": "dev",
    "methods": {},
    "version": 1
  },
  "userdoc": {
    "kind": "user",
    "methods": {},
    "version": 1
  }
}