{
  "contractName": "Token",
  "abi": [
    {
      "inputs": [],
      "stateMutability": "payable",
      "type": "constructor",
      "payable": true
    },
    {
      "anonymous": false,
      "inputs": [
        {
          "indexed": true,
          "internalType": "address",
          "name": "owner",
          "type": "address"
        },
        {
          "indexed": true,
          "internalType": "address",
          "name": "spender",
          "type": "address"
        },
        {
          "indexed": false,
          "internalType": "uint256",
          "name": "value",
          "type": "uint256"
        }
      ],
      "name": "Approval",
      "type": "event"
    },
    {
      "anonymous": false,
      "inputs": [
        {
          "indexed": true,
          "internalType": "address",
          "name": "from",
          "type": "address"
        },
        {
          "indexed": false,
          "internalType": "address",
          "name": "to",
          "type": "address"
        }
      ],
      "name": "MinterChanged",
      "type": "event"
    },
    {
      "anonymous": false,
      "inputs": [
        {
          "indexed": true,
          "internalType": "address",
          "name": "from",
          "type": "address"
        },
        {
          "indexed": true,
          "internalType": "address",
          "name": "to",
          "type": "address"
        },
        {
          "indexed": false,
          "internalType": "uint256",
          "name": "value",
          "type": "uint256"
        }
      ],
      "name": "Transfer",
      "type": "event"
    },
    {
      "inputs": [
        {
          "internalType": "address",
          "name": "owner",
          "type": "address"
        },
        {
          "internalType": "address",
          "name": "spender",
          "type": "address"
        }
      ],
      "name": "allowance",
      "outputs": [
        {
          "internalType": "uint256",
          "name": "",
          "type": "uint256"
        }
      ],
      "stateMutability": "view",
      "type": "function",
      "constant": true
    },
    {
      "inputs": [
        {
          "internalType": "address",
          "name": "spender",
          "type": "address"
        },
        {
          "internalType": "uint256",
          "name": "amount",
          "type": "uint256"
        }
      ],
      "name": "approve",
      "outputs": [
        {
          "internalType": "bool",
          "name": "",
          "type": "bool"
        }
      ],
      "stateMutability": "nonpayable",
      "type": "function"
    },
    {
      "inputs": [
        {
          "internalType": "address",
          "name": "account",
          "type": "address"
        }
      ],
      "name": "balanceOf",
      "outputs": [
        {
          "internalType": "uint256",
          "name": "",
          "type": "uint256"
        }
      ],
      "stateMutability": "view",
      "type": "function",
      "constant": true
    },
    {
      "inputs": [],
      "name": "decimals",
      "outputs": [
        {
          "internalType": "uint8",
          "name": "",
          "type": "uint8"
        }
      ],
      "stateMutability": "view",
      "type": "function",
      "constant": true
    },
    {
      "inputs": [
        {
          "internalType": "address",
          "name": "spender",
          "type": "address"
        },
        {
          "internalType": "uint256",
          "name": "subtractedValue",
          "type": "uint256"
        }
      ],
      "name": "decreaseAllowance",
      "outputs": [
        {
          "internalType": "bool",
          "name": "",
          "type": "bool"
        }
      ],
      "stateMutability": "nonpayable",
      "type": "function"
    },
    {
      "inputs": [
        {
          "internalType": "address",
          "name": "spender",
          "type": "address"
        },
        {
          "internalType": "uint256",
          "name": "addedValue",
          "type": "uint256"
        }
      ],
      "name": "increaseAllowance",
      "outputs": [
        {
          "internalType": "bool",
          "name": "",
          "type": "bool"
        }
      ],
      "stateMutability": "nonpayable",
      "type": "function"
    },
    {
      "inputs": [],
      "name": "minter",
      "outputs": [
        {
          "internalType": "address",
          "name": "",
          "type": "address"
        }
      ],
      "stateMutability": "view",
      "type": "function",
      "constant": true
    },
    {
      "inputs": [],
      "name": "name",
      "outputs": [
        {
          "internalType": "string",
          "name": "",
          "type": "string"
        }
      ],
      "stateMutability": "view",
      "type": "function",
      "constant": true
    },
    {
      "inputs": [],
      "name": "symbol",
      "outputs": [
        {
          "internalType": "string",
          "name": "",
          "type": "string"
        }
      ],
      "stateMutability": "view",
      "type": "function",
      "constant": true
    },
    {
      "inputs": [],
      "name": "totalSupply",
      "outputs": [
        {
          "internalType": "uint256",
          "name": "",
          "type": "uint256"
        }
      ],
      "stateMutability": "view",
      "type": "function",
      "constant": true
    },
    {
      "inputs": [
        {
          "internalType": "address",
          "name": "recipient",
          "type": "address"
        },
        {
          "internalType": "uint256",
          "name": "amount",
          "type": "uint256"
        }
      ],
      "name": "transfer",
      "outputs": [
        {
          "internalType": "bool",
          "name": "",
          "type": "bool"
        }
      ],
      "stateMutability": "nonpayable",
      "type": "function"
    },
    {
      "inputs": [
        {
          "internalType": "address",
          "name": "sender",
          "type": "address"
        },
        {
          "internalType": "address",
          "name": "recipient",
          "type": "address"
        },
        {
          "internalType": "uint256",
          "name": "amount",
          "type": "uint256"
        }
      ],
      "name": "transferFrom",
      "outputs": [
        {
          "internalType": "bool",
          "name": "",
          "type": "bool"
        }
      ],
      "stateMutability": "nonpayable",
      "type": "function"
    },
    {
      "inputs": [
        {
          "internalType": "address",
          "name": "new_minter",
          "type": "address"
        }
      ],
      "name": "setMinter",
      "outputs": [
        {
          "internalType": "bool",
          "name": "",
          "type": "bool"
        }
      ],
      "stateMutability": "nonpayable",
      "type": "function"
    },
    {
      "inputs": [
        {
          "internalType": "address",
          "name": "account",
          "type": "address"
        },
        {
          "internalType": "uint256",
          "name": "amount",
          "type": "uint256"
        }
      ],
      "name": "mint",
      "outputs": [],
      "stateMutability": "nonpayable",
      "type": "function"
    }
  ],
  "bytecode": "0x60806040526040518060400160405280601281526020017f54657374696e672043757272656e6379203300000000000000000000000000008152506040518060400160405280600381526020017f5443330000000000000000000000000000000000000000000000000000000000815250816003908051906020019062000088929190620000eb565b508060049080519060200190620000a1929190620000eb565b50505033600560006101000a81548173ffffffffffffffffffffffffffffffffffffffff021916908373ffffffffffffffffffffffffffffffffffffffff16021790555062000200565b828054620000f9906200019b565b90600052602060002090601f0160209004810192826200011d576000855562000169565b82601f106200013857805160ff191683800117855562000169565b8280016001018555821562000169579182015b82811115620001685782518255916020019190600101906200014b565b5b5090506200017891906200017c565b5090565b5b80821115620001975760008160009055506001016200017d565b5090565b60006002820490506001821680620001b457607f821691505b60208210811415620001cb57620001ca620001d1565b5b50919050565b7f4e487b7100000000000000000000000000000000000000000000000000000000600052602260045260246000fd5b61187480620002106000396000f3fe608060405234801561001057600080fd5b5060043610610107576000357c01000000000000000000000000000000000000000000000000000000009004806340c10f19116100a9578063a457c2d711610083578063a457c2d71461027e578063a9059cbb146102ae578063dd62ed3e146102de578063fca3b5aa1461030e57610107565b806340c10f191461021457806370a082311461023057806395d89b411461026057610107565b806318160ddd116100e557806318160ddd1461017857806323b872dd14610196578063313ce567146101c657806339509351146101e457610107565b806306fdde031461010c578063075461721461012a578063095ea7b314610148575b600080fd5b61011461033e565b60405161012191906114c9565b60405180910390f35b6101326103d0565b60405161013f9190611493565b60405180910390f35b610162600480360381019061015d9190611098565b6103f6565b60405161016f91906114ae565b60405180910390f35b610180610414565b60405161018d919061160b565b60405180910390f35b6101b060048036038101906101ab9190611049565b61041e565b6040516101bd91906114ae565b60405180910390f35b6101ce61051f565b6040516101db9190611626565b60405180910390f35b6101fe60048036038101906101f99190611098565b610528565b60405161020b91906114ae565b60405180910390f35b61022e60048036038101906102299190611098565b6105d4565b005b61024a60048036038101906102459190610fe4565b610672565b604051610257919061160b565b60405180910390f35b6102686106ba565b60405161027591906114c9565b60405180910390f35b61029860048036038101906102939190611098565b61074c565b6040516102a591906114ae565b60405180910390f35b6102c860048036038101906102c39190611098565b610840565b6040516102d591906114ae565b60405180910390f35b6102f860048036038101906102f3919061100d565b61085e565b604051610305919061160b565b60405180910390f35b61032860048036038101906103239190610fe4565b6108e5565b60405161033591906114ae565b60405180910390f35b60606003805461034d9061176f565b80601f01602080910402602001604051908101604052809291908181526020018280546103799061176f565b80156103c65780601f1061039b576101008083540402835291602001916103c6565b820191906000526020600020905b8154815290600101906020018083116103a957829003601f168201915b5050505050905090565b600560009054906101000a900473ffffffffffffffffffffffffffffffffffffffff1681565b600061040a610403610a0f565b8484610a17565b6001905092915050565b6000600254905090565b600061042b848484610be2565b6000600160008673ffffffffffffffffffffffffffffffffffffffff1673ffffffffffffffffffffffffffffffffffffffff1681526020019081526020016000206000610476610a0f565b73ffffffffffffffffffffffffffffffffffffffff1673ffffffffffffffffffffffffffffffffffffffff168152602001908152602001600020549050828110156104f6576040517f08c379a00000000000000000000000000000000000000000000000000000000081526004016104ed9061156b565b60405180910390fd5b61051385610502610a0f565b858461050e91906116b3565b610a17565b60019150509392505050565b60006012905090565b60006105ca610535610a0f565b848460016000610543610a0f565b73ffffffffffffffffffffffffffffffffffffffff1673ffffffffffffffffffffffffffffffffffffffff16815260200190815260200160002060008873ffffffffffffffffffffffffffffffffffffffff1673ffffffffffffffffffffffffffffffffffffffff168152602001908152602001600020546105c5919061165d565b610a17565b6001905092915050565b600560009054906101000a900473ffffffffffffffffffffffffffffffffffffffff1673ffffffffffffffffffffffffffffffffffffffff163373ffffffffffffffffffffffffffffffffffffffff1614610664576040517f08c379a000000000000000000000000000000000000000000000000000000000815260040161065b9061152b565b60405180910390fd5b61066e8282610e61565b5050565b60008060008373ffffffffffffffffffffffffffffffffffffffff1673ffffffffffffffffffffffffffffffffffffffff168152602001908152602001600020549050919050565b6060600480546106c99061176f565b80601f01602080910402602001604051908101604052809291908181526020018280546106f59061176f565b80156107425780601f1061071757610100808354040283529160200191610742565b820191906000526020600020905b81548152906001019060200180831161072557829003601f168201915b5050505050905090565b6000806001600061075b610a0f565b73ffffffffffffffffffffffffffffffffffffffff1673ffffffffffffffffffffffffffffffffffffffff16815260200190815260200160002060008573ffffffffffffffffffffffffffffffffffffffff1673ffffffffffffffffffffffffffffffffffffffff16815260200190815260200160002054905082811015610818576040517f08c379a000000000000000000000000000000000000000000000000000000000815260040161080f906115cb565b60405180910390fd5b610835610823610a0f565b85858461083091906116b3565b610a17565b600191505092915050565b600061085461084d610a0f565b8484610be2565b6001905092915050565b6000600160008473ffffffffffffffffffffffffffffffffffffffff1673ffffffffffffffffffffffffffffffffffffffff16815260200190815260200160002060008373ffffffffffffffffffffffffffffffffffffffff1673ffffffffffffffffffffffffffffffffffffffff16815260200190815260200160002054905092915050565b6000600560009054906101000a900473ffffffffffffffffffffffffffffffffffffffff1673ffffffffffffffffffffffffffffffffffffffff163373ffffffffffffffffffffffffffffffffffffffff1614610977576040517f08c379a000000000000000000000000000000000000000000000000000000000815260040161096e9061152b565b60405180910390fd5b81600560006101000a81548173ffffffffffffffffffffffffffffffffffffffff021916908373ffffffffffffffffffffffffffffffffffffffff1602179055503373ffffffffffffffffffffffffffffffffffffffff167f3b0007eb941cf645526cbb3a4fdaecda9d28ce4843167d9263b536a1f1edc0f6836040516109fe9190611493565b60405180910390a260019050919050565b600033905090565b600073ffffffffffffffffffffffffffffffffffffffff168373ffffffffffffffffffffffffffffffffffffffff161415610a87576040517f08c379a0000000000000000000000000000000000000000000000000000000008152600401610a7e906115ab565b60405180910390fd5b600073ffffffffffffffffffffffffffffffffffffffff168273ffffffffffffffffffffffffffffffffffffffff161415610af7576040517f08c379a0000000000000000000000000000000000000000000000000000000008152600401610aee9061150b565b60405180910390fd5b80600160008573ffffffffffffffffffffffffffffffffffffffff1673ffffffffffffffffffffffffffffffffffffffff16815260200190815260200160002060008473ffffffffffffffffffffffffffffffffffffffff1673ffffffffffffffffffffffffffffffffffffffff168152602001908152602001600020819055508173ffffffffffffffffffffffffffffffffffffffff168373ffffffffffffffffffffffffffffffffffffffff167f8c5be1e5ebec7d5bd14f71427d1e84f3dd0314c0f7b2291e5b200ac8c7c3b92583604051610bd5919061160b565b60405180910390a3505050565b600073ffffffffffffffffffffffffffffffffffffffff168373ffffffffffffffffffffffffffffffffffffffff161415610c52576040517f08c379a0000000000000000000000000000000000000000000000000000000008152600401610c499061158b565b60405180910390fd5b600073ffffffffffffffffffffffffffffffffffffffff168273ffffffffffffffffffffffffffffffffffffffff161415610cc2576040517f08c379a0000000000000000000000000000000000000000000000000000000008152600401610cb9906114eb565b60405180910390fd5b610ccd838383610fb5565b60008060008573ffffffffffffffffffffffffffffffffffffffff1673ffffffffffffffffffffffffffffffffffffffff16815260200190815260200160002054905081811015610d53576040517f08c379a0000000000000000000000000000000000000000000000000000000008152600401610d4a9061154b565b60405180910390fd5b8181610d5f91906116b3565b6000808673ffffffffffffffffffffffffffffffffffffffff1673ffffffffffffffffffffffffffffffffffffffff16815260200190815260200160002081905550816000808573ffffffffffffffffffffffffffffffffffffffff1673ffffffffffffffffffffffffffffffffffffffff1681526020019081526020016000206000828254610def919061165d565b925050819055508273ffffffffffffffffffffffffffffffffffffffff168473ffffffffffffffffffffffffffffffffffffffff167fddf252ad1be2c89b69c2b068fc378daa952ba7f163c4a11628f55a4df523b3ef84604051610e53919061160b565b60405180910390a350505050565b600073ffffffffffffffffffffffffffffffffffffffff168273ffffffffffffffffffffffffffffffffffffffff161415610ed1576040517f08c379a0000000000000000000000000000000000000000000000000000000008152600401610ec8906115eb565b60405180910390fd5b610edd60008383610fb5565b8060026000828254610eef919061165d565b92505081905550806000808473ffffffffffffffffffffffffffffffffffffffff1673ffffffffffffffffffffffffffffffffffffffff1681526020019081526020016000206000828254610f44919061165d565b925050819055508173ffffffffffffffffffffffffffffffffffffffff16600073ffffffffffffffffffffffffffffffffffffffff167fddf252ad1be2c89b69c2b068fc378daa952ba7f163c4a11628f55a4df523b3ef83604051610fa9919061160b565b60405180910390a35050565b505050565b600081359050610fc981611810565b92915050565b600081359050610fde81611827565b92915050565b600060208284031215610ff657600080fd5b600061100484828501610fba565b91505092915050565b6000806040838503121561102057600080fd5b600061102e85828601610fba565b925050602061103f85828601610fba565b9150509250929050565b60008060006060848603121561105e57600080fd5b600061106c86828701610fba565b935050602061107d86828701610fba565b925050604061108e86828701610fcf565b9150509250925092565b600080604083850312156110ab57600080fd5b60006110b985828601610fba565b92505060206110ca85828601610fcf565b9150509250929050565b6110dd816116e7565b82525050565b6110ec816116f9565b82525050565b60006110fd82611641565b611107818561164c565b935061111781856020860161173c565b611120816117ff565b840191505092915050565b600061113860238361164c565b91507f45524332303a207472616e7366657220746f20746865207a65726f206164647260008301527f65737300000000000000000000000000000000000000000000000000000000006020830152604082019050919050565b600061119e60228361164c565b91507f45524332303a20617070726f766520746f20746865207a65726f20616464726560008301527f73730000000000000000000000000000000000000000000000000000000000006020830152604082019050919050565b600061120460118361164c565b91507f5b215d204e6f742061204d696e746572210000000000000000000000000000006000830152602082019050919050565b600061124460268361164c565b91507f45524332303a207472616e7366657220616d6f756e742065786365656473206260008301527f616c616e636500000000000000000000000000000000000000000000000000006020830152604082019050919050565b60006112aa60288361164c565b91507f45524332303a207472616e7366657220616d6f756e742065786365656473206160008301527f6c6c6f77616e63650000000000000000000000000000000000000000000000006020830152604082019050919050565b600061131060258361164c565b91507f45524332303a207472616e736665722066726f6d20746865207a65726f20616460008301527f64726573730000000000000000000000000000000000000000000000000000006020830152604082019050919050565b600061137660248361164c565b91507f45524332303a20617070726f76652066726f6d20746865207a65726f2061646460008301527f72657373000000000000000000000000000000000000000000000000000000006020830152604082019050919050565b60006113dc60258361164c565b91507f45524332303a2064656372656173656420616c6c6f77616e63652062656c6f7760008301527f207a65726f0000000000000000000000000000000000000000000000000000006020830152604082019050919050565b6000611442601f8361164c565b91507f45524332303a206d696e7420746f20746865207a65726f2061646472657373006000830152602082019050919050565b61147e81611725565b82525050565b61148d8161172f565b82525050565b60006020820190506114a860008301846110d4565b92915050565b60006020820190506114c360008301846110e3565b92915050565b600060208201905081810360008301526114e381846110f2565b905092915050565b600060208201905081810360008301526115048161112b565b9050919050565b6000602082019050818103600083015261152481611191565b9050919050565b60006020820190508181036000830152611544816111f7565b9050919050565b6000602082019050818103600083015261156481611237565b9050919050565b600060208201905081810360008301526115848161129d565b9050919050565b600060208201905081810360008301526115a481611303565b9050919050565b600060208201905081810360008301526115c481611369565b9050919050565b600060208201905081810360008301526115e4816113cf565b9050919050565b6000602082019050818103600083015261160481611435565b9050919050565b60006020820190506116206000830184611475565b92915050565b600060208201905061163b6000830184611484565b92915050565b600081519050919050565b600082825260208201905092915050565b600061166882611725565b915061167383611725565b9250827fffffffffffffffffffffffffffffffffffffffffffffffffffffffffffffffff038211156116a8576116a76117a1565b5b828201905092915050565b60006116be82611725565b91506116c983611725565b9250828210156116dc576116db6117a1565b5b828203905092915050565b60006116f282611705565b9050919050565b60008115159050919050565b600073ffffffffffffffffffffffffffffffffffffffff82169050919050565b6000819050919050565b600060ff82169050919050565b60005b8381101561175a57808201518184015260208101905061173f565b83811115611769576000848401525b50505050565b6000600282049050600182168061178757607f821691505b6020821081141561179b5761179a6117d0565b5b50919050565b7f4e487b7100000000000000000000000000000000000000000000000000000000600052601160045260246000fd5b7f4e487b7100000000000000000000000000000000000000000000000000000000600052602260045260246000fd5b6000601f19601f8301169050919050565b611819816116e7565b811461182457600080fd5b50565b61183081611725565b811461183b57600080fd5b5056fea264697066735822122038c4fba805553b12112562d97baea26e045ebbc0306893f11741f36f709bb29564736f6c63430008000033",
  "immutableReferences": {},
  "source": "//SPDX-License-Identifier: UNLICENSED\r\npragma solidity 0.8.0;\r\n\r\nimport \"./../../node_modules/@openzeppelin/contracts/token/ERC20/ERC20.sol\";\r\n\r\ncontract Token is ERC20 {\r\n    // the minter, account that mints new tokens\r\n    address public minter;\r\n\r\n    // fire when minter is changed, log search keyword using 'from' address\r\n    event MinterChanged(address indexed from, address to);\r\n\r\n\r\n\r\n    // constructor, call on deployment\r\n    constructor() public payable ERC20(\"Testing Currency 3\", \"TC3\") {\r\n        minter = msg.sender;\r\n    }\r\n\r\n    // function to switch new minter\r\n    function setMinter(address new_minter) public returns(bool){ \r\n        require(msg.sender == minter, \"[!] Not a Minter!\");\r\n        minter = new_minter;\r\n\r\n        emit MinterChanged(msg.sender, new_minter);\r\n        return true;\r\n    }\r\n\r\n    // function to mint new tokens by minter only.\r\n    function mint(address account, uint amount) public {\r\n        require(msg.sender == minter, \"[!] Not a Minter!\");\r\n        _mint(account, amount);\r\n    }\r\n}",
  "sourcePath": "D:/Desktop/defi test project 3/truffle_files/contracts/Token.sol",
  "compiler": {
    "name": "solc",
    "version": "0.8.0+commit.c7dfd78e.Emscripten.clang"
  },
  "schemaVersion": "3.3.4",
  "updatedAt": "2021-04-18T14:44:31.298Z",
  "networkType": "ethereum",
  "devdoc": {
    "kind": "dev",
    "methods": {
      "allowance(address,address)": {
        "details": "See {IERC20-allowance}."
      },
      "approve(address,uint256)": {
        "details": "See {IERC20-approve}. Requirements: - `spender` cannot be the zero address."
      },
      "balanceOf(address)": {
        "details": "See {IERC20-balanceOf}."
      },
      "decimals()": {
        "details": "Returns the number of decimals used to get its user representation. For example, if `decimals` equals `2`, a balance of `505` tokens should be displayed to a user as `5,05` (`505 / 10 ** 2`). Tokens usually opt for a value of 18, imitating the relationship between Ether and Wei. This is the value {ERC20} uses, unless this function is overloaded; NOTE: This information is only used for _display_ purposes: it in no way affects any of the arithmetic of the contract, including {IERC20-balanceOf} and {IERC20-transfer}."
      },
      "decreaseAllowance(address,uint256)": {
        "details": "Atomically decreases the allowance granted to `spender` by the caller. This is an alternative to {approve} that can be used as a mitigation for problems described in {IERC20-approve}. Emits an {Approval} event indicating the updated allowance. Requirements: - `spender` cannot be the zero address. - `spender` must have allowance for the caller of at least `subtractedValue`."
      },
      "increaseAllowance(address,uint256)": {
        "details": "Atomically increases the allowance granted to `spender` by the caller. This is an alternative to {approve} that can be used as a mitigation for problems described in {IERC20-approve}. Emits an {Approval} event indicating the updated allowance. Requirements: - `spender` cannot be the zero address."
      },
      "name()": {
        "details": "Returns the name of the token."
      },
      "symbol()": {
        "details": "Returns the symbol of the token, usually a shorter version of the name."
      },
      "totalSupply()": {
        "details": "See {IERC20-totalSupply}."
      },
      "transfer(address,uint256)": {
        "details": "See {IERC20-transfer}. Requirements: - `recipient` cannot be the zero address. - the caller must have a balance of at least `amount`."
      },
      "transferFrom(address,address,uint256)": {
        "details": "See {IERC20-transferFrom}. Emits an {Approval} event indicating the updated allowance. This is not required by the EIP. See the note at the beginning of {ERC20}. Requirements: - `sender` and `recipient` cannot be the zero address. - `sender` must have a balance of at least `amount`. - the caller must have allowance for ``sender``'s tokens of at least `amount`."
      }
    },
    "version": 1
  },
  "userdoc": {
    "kind": "user",
    "methods": {},
    "version": 1
  }
}